{
  "_format": "hh-sol-artifact-1",
  "contractName": "CredChain",
  "sourceName": "contracts/CredChain.sol",
  "abi": [
    {
      "inputs": [
        {
          "internalType": "bytes32",
          "name": "",
          "type": "bytes32"
        }
      ],
      "name": "certificateExists",
      "outputs": [
        {
          "internalType": "bool",
          "name": "",
          "type": "bool"
        }
      ],
      "stateMutability": "view",
      "type": "function"
    },
    {
      "inputs": [
        {
          "internalType": "bytes32",
          "name": "",
          "type": "bytes32"
        }
      ],
      "name": "certificates",
      "outputs": [
        {
          "internalType": "string",
          "name": "name",
          "type": "string"
        },
        {
          "internalType": "string",
          "name": "certifiedFor",
          "type": "string"
        },
        {
          "internalType": "uint256",
          "name": "date",
          "type": "uint256"
        },
        {
          "internalType": "address",
          "name": "studentAddress",
          "type": "address"
        }
      ],
      "stateMutability": "view",
      "type": "function"
    },
    {
      "inputs": [
        {
          "internalType": "string",
          "name": "_name",
          "type": "string"
        },
        {
          "internalType": "string",
          "name": "_certifiedFor",
          "type": "string"
        },
        {
          "internalType": "uint256",
          "name": "_date",
          "type": "uint256"
        },
        {
          "internalType": "address",
          "name": "_studentAddress",
          "type": "address"
        }
      ],
      "name": "createCertificate",
      "outputs": [
        {
          "internalType": "bytes32",
          "name": "",
          "type": "bytes32"
        }
      ],
      "stateMutability": "nonpayable",
      "type": "function"
    },
    {
      "inputs": [
        {
          "internalType": "bytes32",
          "name": "_certificateHash",
          "type": "bytes32"
        }
      ],
      "name": "getCertificates",
      "outputs": [
        {
          "components": [
            {
              "internalType": "string",
              "name": "name",
              "type": "string"
            },
            {
              "internalType": "string",
              "name": "certifiedFor",
              "type": "string"
            },
            {
              "internalType": "uint256",
              "name": "date",
              "type": "uint256"
            },
            {
              "internalType": "address",
              "name": "studentAddress",
              "type": "address"
            }
          ],
          "internalType": "struct CredChain.certificate",
          "name": "",
          "type": "tuple"
        }
      ],
      "stateMutability": "view",
      "type": "function"
    },
    {
      "inputs": [
        {
          "internalType": "uint256",
          "name": "",
          "type": "uint256"
        }
      ],
      "name": "storedHash",
      "outputs": [
        {
          "internalType": "bytes32",
          "name": "",
          "type": "bytes32"
        }
      ],
      "stateMutability": "view",
      "type": "function"
    }
  ],
  "bytecode": "0x608060405234801561001057600080fd5b5061106a806100206000396000f3fe608060405234801561001057600080fd5b50600436106100575760003560e01c806315def9e81461005c57806348292cbd1461008c578063672d3f5c146100bc578063742f0688146100ec578063b440983e1461011f575b600080fd5b6100766004803603810190610071919061088c565b61014f565b6040516100839190610944565b60405180910390f35b6100a660048036038101906100a1919061098b565b6102ab565b6040516100b39190610abf565b60405180910390f35b6100d660048036038101906100d19190610ae1565b6104bc565b6040516100e39190610944565b60405180910390f35b6101066004803603810190610101919061098b565b6104e0565b6040516101169493929190610b76565b60405180910390f35b6101396004803603810190610134919061098b565b610640565b6040516101469190610be4565b60405180910390f35b600080858585856040516020016101699493929190610ca4565b604051602081830303815290604052805190602001209050600081908060018154018082558091505060019003906000526020600020016000909190919091505560405180608001604052808781526020018681526020018581526020018473ffffffffffffffffffffffffffffffffffffffff168152506002600083815260200190815260200160002060008201518160000190816102099190610ef6565b50602082015181600101908161021f9190610ef6565b506040820151816002015560608201518160030160006101000a81548173ffffffffffffffffffffffffffffffffffffffff021916908373ffffffffffffffffffffffffffffffffffffffff160217905550905050600180600083815260200190815260200160002060006101000a81548160ff02191690831515021790555080915050949350505050565b6102b3610660565b6001600083815260200190815260200160002060009054906101000a900460ff16610313576040517f08c379a000000000000000000000000000000000000000000000000000000000815260040161030a90611014565b60405180910390fd5b6002600083815260200190815260200160002060405180608001604052908160008201805461034190610d19565b80601f016020809104026020016040519081016040528092919081815260200182805461036d90610d19565b80156103ba5780601f1061038f576101008083540402835291602001916103ba565b820191906000526020600020905b81548152906001019060200180831161039d57829003601f168201915b505050505081526020016001820180546103d390610d19565b80601f01602080910402602001604051908101604052809291908181526020018280546103ff90610d19565b801561044c5780601f106104215761010080835404028352916020019161044c565b820191906000526020600020905b81548152906001019060200180831161042f57829003601f168201915b50505050508152602001600282015481526020016003820160009054906101000a900473ffffffffffffffffffffffffffffffffffffffff1673ffffffffffffffffffffffffffffffffffffffff1673ffffffffffffffffffffffffffffffffffffffff16815250509050919050565b600081815481106104cc57600080fd5b906000526020600020016000915090505481565b600260205280600052604060002060009150905080600001805461050390610d19565b80601f016020809104026020016040519081016040528092919081815260200182805461052f90610d19565b801561057c5780601f106105515761010080835404028352916020019161057c565b820191906000526020600020905b81548152906001019060200180831161055f57829003601f168201915b50505050509080600101805461059190610d19565b80601f01602080910402602001604051908101604052809291908181526020018280546105bd90610d19565b801561060a5780601f106105df5761010080835404028352916020019161060a565b820191906000526020600020905b8154815290600101906020018083116105ed57829003601f168201915b5050505050908060020154908060030160009054906101000a900473ffffffffffffffffffffffffffffffffffffffff16905084565b60016020528060005260406000206000915054906101000a900460ff1681565b6040518060800160405280606081526020016060815260200160008152602001600073ffffffffffffffffffffffffffffffffffffffff1681525090565b6000604051905090565b600080fd5b600080fd5b600080fd5b600080fd5b6000601f19601f8301169050919050565b7f4e487b7100000000000000000000000000000000000000000000000000000000600052604160045260246000fd5b610705826106bc565b810181811067ffffffffffffffff82111715610724576107236106cd565b5b80604052505050565b600061073761069e565b905061074382826106fc565b919050565b600067ffffffffffffffff821115610763576107626106cd565b5b61076c826106bc565b9050602081019050919050565b82818337600083830152505050565b600061079b61079684610748565b61072d565b9050828152602081018484840111156107b7576107b66106b7565b5b6107c2848285610779565b509392505050565b600082601f8301126107df576107de6106b2565b5b81356107ef848260208601610788565b91505092915050565b6000819050919050565b61080b816107f8565b811461081657600080fd5b50565b60008135905061082881610802565b92915050565b600073ffffffffffffffffffffffffffffffffffffffff82169050919050565b60006108598261082e565b9050919050565b6108698161084e565b811461087457600080fd5b50565b60008135905061088681610860565b92915050565b600080600080608085870312156108a6576108a56106a8565b5b600085013567ffffffffffffffff8111156108c4576108c36106ad565b5b6108d0878288016107ca565b945050602085013567ffffffffffffffff8111156108f1576108f06106ad565b5b6108fd878288016107ca565b935050604061090e87828801610819565b925050606061091f87828801610877565b91505092959194509250565b6000819050919050565b61093e8161092b565b82525050565b60006020820190506109596000830184610935565b92915050565b6109688161092b565b811461097357600080fd5b50565b6000813590506109858161095f565b92915050565b6000602082840312156109a1576109a06106a8565b5b60006109af84828501610976565b91505092915050565b600081519050919050565b600082825260208201905092915050565b60005b838110156109f25780820151818401526020810190506109d7565b60008484015250505050565b6000610a09826109b8565b610a1381856109c3565b9350610a238185602086016109d4565b610a2c816106bc565b840191505092915050565b610a40816107f8565b82525050565b610a4f8161084e565b82525050565b60006080830160008301518482036000860152610a7282826109fe565b91505060208301518482036020860152610a8c82826109fe565b9150506040830151610aa16040860182610a37565b506060830151610ab46060860182610a46565b508091505092915050565b60006020820190508181036000830152610ad98184610a55565b905092915050565b600060208284031215610af757610af66106a8565b5b6000610b0584828501610819565b91505092915050565b600082825260208201905092915050565b6000610b2a826109b8565b610b348185610b0e565b9350610b448185602086016109d4565b610b4d816106bc565b840191505092915050565b610b61816107f8565b82525050565b610b708161084e565b82525050565b60006080820190508181036000830152610b908187610b1f565b90508181036020830152610ba48186610b1f565b9050610bb36040830185610b58565b610bc06060830184610b67565b95945050505050565b60008115159050919050565b610bde81610bc9565b82525050565b6000602082019050610bf96000830184610bd5565b92915050565b600081905092915050565b6000610c15826109b8565b610c1f8185610bff565b9350610c2f8185602086016109d4565b80840191505092915050565b6000819050919050565b610c56610c51826107f8565b610c3b565b82525050565b60008160601b9050919050565b6000610c7482610c5c565b9050919050565b6000610c8682610c69565b9050919050565b610c9e610c998261084e565b610c7b565b82525050565b6000610cb08287610c0a565b9150610cbc8286610c0a565b9150610cc88285610c45565b602082019150610cd88284610c8d565b60148201915081905095945050505050565b7f4e487b7100000000000000000000000000000000000000000000000000000000600052602260045260246000fd5b60006002820490506001821680610d3157607f821691505b602082108103610d4457610d43610cea565b5b50919050565b60008190508160005260206000209050919050565b60006020601f8301049050919050565b600082821b905092915050565b600060088302610dac7fffffffffffffffffffffffffffffffffffffffffffffffffffffffffffffffff82610d6f565b610db68683610d6f565b95508019841693508086168417925050509392505050565b6000819050919050565b6000610df3610dee610de9846107f8565b610dce565b6107f8565b9050919050565b6000819050919050565b610e0d83610dd8565b610e21610e1982610dfa565b848454610d7c565b825550505050565b600090565b610e36610e29565b610e41818484610e04565b505050565b5b81811015610e6557610e5a600082610e2e565b600181019050610e47565b5050565b601f821115610eaa57610e7b81610d4a565b610e8484610d5f565b81016020851015610e93578190505b610ea7610e9f85610d5f565b830182610e46565b50505b505050565b600082821c905092915050565b6000610ecd60001984600802610eaf565b1980831691505092915050565b6000610ee68383610ebc565b9150826002028217905092915050565b610eff826109b8565b67ffffffffffffffff811115610f1857610f176106cd565b5b610f228254610d19565b610f2d828285610e69565b600060209050601f831160018114610f605760008415610f4e578287015190505b610f588582610eda565b865550610fc0565b601f198416610f6e86610d4a565b60005b82811015610f9657848901518255600182019150602085019450602081019050610f71565b86831015610fb35784890151610faf601f891682610ebc565b8355505b6001600288020188555050505b505050505050565b7f43657274696669636174652048617368206e6f7420466f756e642e0000000000600082015250565b6000610ffe601b83610b0e565b915061100982610fc8565b602082019050919050565b6000602082019050818103600083015261102d81610ff1565b905091905056fea26469706673582212204a0632627ce2c83d3bf3e8c753c0a7ca45be050604e7846be069558062e2f7dc64736f6c63430008140033",
  "linkReferences": {},
  "deployedLinkReferences": {}
}