{
  "_format": "hh-sol-artifact-1",
  "contractName": "CredChain",
  "sourceName": "contracts/CredChain.sol",
  "abi": [
    {
      "inputs": [
        {
          "internalType": "address",
          "name": "_userContract",
          "type": "address"
        }
      ],
      "stateMutability": "nonpayable",
      "type": "constructor"
    },
    {
      "anonymous": false,
      "inputs": [
        {
          "indexed": false,
          "internalType": "string",
          "name": "name",
          "type": "string"
        },
        {
          "indexed": false,
          "internalType": "string",
          "name": "certifiedFor",
          "type": "string"
        },
        {
          "indexed": false,
          "internalType": "uint256",
          "name": "date",
          "type": "uint256"
        },
        {
          "indexed": false,
          "internalType": "address",
          "name": "studentAddress",
          "type": "address"
        },
        {
          "indexed": false,
          "internalType": "uint256",
          "name": "timestamp",
          "type": "uint256"
        }
      ],
      "name": "certificateCreated",
      "type": "event"
    },
    {
      "inputs": [
        {
          "internalType": "bytes32",
          "name": "",
          "type": "bytes32"
        }
      ],
      "name": "certificateExists",
      "outputs": [
        {
          "internalType": "bool",
          "name": "",
          "type": "bool"
        }
      ],
      "stateMutability": "view",
      "type": "function"
    },
    {
      "inputs": [
        {
          "internalType": "bytes32",
          "name": "",
          "type": "bytes32"
        }
      ],
      "name": "certificates",
      "outputs": [
        {
          "internalType": "string",
          "name": "name",
          "type": "string"
        },
        {
          "internalType": "string",
          "name": "certifiedFor",
          "type": "string"
        },
        {
          "internalType": "uint256",
          "name": "date",
          "type": "uint256"
        },
        {
          "internalType": "address",
          "name": "studentAddress",
          "type": "address"
        },
        {
          "internalType": "uint256",
          "name": "timestamp",
          "type": "uint256"
        }
      ],
      "stateMutability": "view",
      "type": "function"
    },
    {
      "inputs": [
        {
          "internalType": "string",
          "name": "_name",
          "type": "string"
        },
        {
          "internalType": "string",
          "name": "_certifiedFor",
          "type": "string"
        },
        {
          "internalType": "uint256",
          "name": "_date",
          "type": "uint256"
        },
        {
          "internalType": "address",
          "name": "_studentAddress",
          "type": "address"
        },
        {
          "internalType": "uint256",
          "name": "_timestamp",
          "type": "uint256"
        }
      ],
      "name": "createCertificate",
      "outputs": [
        {
          "internalType": "bytes32",
          "name": "",
          "type": "bytes32"
        }
      ],
      "stateMutability": "nonpayable",
      "type": "function"
    },
    {
      "inputs": [
        {
          "internalType": "bytes32",
          "name": "_certificateHash",
          "type": "bytes32"
        }
      ],
      "name": "getCertificates",
      "outputs": [
        {
          "components": [
            {
              "internalType": "string",
              "name": "name",
              "type": "string"
            },
            {
              "internalType": "string",
              "name": "certifiedFor",
              "type": "string"
            },
            {
              "internalType": "uint256",
              "name": "date",
              "type": "uint256"
            },
            {
              "internalType": "address",
              "name": "studentAddress",
              "type": "address"
            },
            {
              "internalType": "uint256",
              "name": "timestamp",
              "type": "uint256"
            }
          ],
          "internalType": "struct CredChain.certificate",
          "name": "",
          "type": "tuple"
        }
      ],
      "stateMutability": "view",
      "type": "function"
    },
    {
      "inputs": [
        {
          "internalType": "address",
          "name": "_studentAddress",
          "type": "address"
        }
      ],
      "name": "getCertificatesByAddress",
      "outputs": [
        {
          "components": [
            {
              "internalType": "string",
              "name": "name",
              "type": "string"
            },
            {
              "internalType": "string",
              "name": "certifiedFor",
              "type": "string"
            },
            {
              "internalType": "uint256",
              "name": "date",
              "type": "uint256"
            },
            {
              "internalType": "address",
              "name": "studentAddress",
              "type": "address"
            },
            {
              "internalType": "uint256",
              "name": "timestamp",
              "type": "uint256"
            }
          ],
          "internalType": "struct CredChain.certificate[]",
          "name": "",
          "type": "tuple[]"
        },
        {
          "internalType": "bytes32[]",
          "name": "",
          "type": "bytes32[]"
        }
      ],
      "stateMutability": "view",
      "type": "function"
    },
    {
      "inputs": [
        {
          "internalType": "uint256",
          "name": "",
          "type": "uint256"
        }
      ],
      "name": "storedHash",
      "outputs": [
        {
          "internalType": "bytes32",
          "name": "",
          "type": "bytes32"
        }
      ],
      "stateMutability": "view",
      "type": "function"
    },
    {
      "inputs": [
        {
          "internalType": "address",
          "name": "",
          "type": "address"
        },
        {
          "internalType": "uint256",
          "name": "",
          "type": "uint256"
        }
      ],
      "name": "studentCertificates",
      "outputs": [
        {
          "internalType": "string",
          "name": "name",
          "type": "string"
        },
        {
          "internalType": "string",
          "name": "certifiedFor",
          "type": "string"
        },
        {
          "internalType": "uint256",
          "name": "date",
          "type": "uint256"
        },
        {
          "internalType": "address",
          "name": "studentAddress",
          "type": "address"
        },
        {
          "internalType": "uint256",
          "name": "timestamp",
          "type": "uint256"
        }
      ],
      "stateMutability": "view",
      "type": "function"
    }
  ],
  "bytecode": "0x60806040523480156200001157600080fd5b50604051620024e5380380620024e58339818101604052810190620000379190620000e8565b806000806101000a81548173ffffffffffffffffffffffffffffffffffffffff021916908373ffffffffffffffffffffffffffffffffffffffff160217905550506200011a565b600080fd5b600073ffffffffffffffffffffffffffffffffffffffff82169050919050565b6000620000b08262000083565b9050919050565b620000c281620000a3565b8114620000ce57600080fd5b50565b600081519050620000e281620000b7565b92915050565b6000602082840312156200010157620001006200007e565b5b60006200011184828501620000d1565b91505092915050565b6123bb806200012a6000396000f3fe608060405234801561001057600080fd5b506004361061007d5760003560e01c8063672d3f5c1161005b578063672d3f5c14610113578063742f068814610143578063b440983e14610177578063c3934f0e146101a75761007d565b806348292cbd14610082578063568a92e0146100b257806364af2968146100e3575b600080fd5b61009c6004803603810190610097919061146e565b6101db565b6040516100a99190611602565b60405180910390f35b6100cc60048036038101906100c79190611650565b610611565b6040516100da92919061187a565b60405180910390f35b6100fd60048036038101906100f89190611a12565b610bb5565b60405161010a9190611ad4565b60405180910390f35b61012d60048036038101906101289190611aef565b6110b2565b60405161013a9190611ad4565b60405180910390f35b61015d6004803603810190610158919061146e565b6110d6565b60405161016e959493929190611b84565b60405180910390f35b610191600480360381019061018c919061146e565b61123c565b60405161019e9190611c00565b60405180910390f35b6101c160048036038101906101bc9190611c1b565b61125c565b6040516101d2959493929190611b84565b60405180910390f35b6101e36113df565b60008060009054906101000a900473ffffffffffffffffffffffffffffffffffffffff1673ffffffffffffffffffffffffffffffffffffffff16630f53a470336040518263ffffffff1660e01b815260040161023f9190611c5b565b600060405180830381865afa15801561025c573d6000803e3d6000fd5b505050506040513d6000823e3d601f19601f820116820180604052508101906102859190611d78565b90506000816000015151116102cf576040517f08c379a00000000000000000000000000000000000000000000000000000000081526004016102c690611e0d565b60405180910390fd5b60008060009054906101000a900473ffffffffffffffffffffffffffffffffffffffff1673ffffffffffffffffffffffffffffffffffffffff16630f53a470336040518263ffffffff1660e01b815260040161032b9190611c5b565b600060405180830381865afa158015610348573d6000803e3d6000fd5b505050506040513d6000823e3d601f19601f820116820180604052508101906103719190611d78565b90506040518060400160405280600881526020017f656d706c6f79656500000000000000000000000000000000000000000000000081525080519060200120816020015180519060200120146103fc576040517f08c379a00000000000000000000000000000000000000000000000000000000081526004016103f390611e79565b60405180910390fd5b6002600085815260200190815260200160002060009054906101000a900460ff1661045c576040517f08c379a000000000000000000000000000000000000000000000000000000000815260040161045390611ee5565b60405180910390fd5b600360008581526020019081526020016000206040518060a001604052908160008201805461048a90611f34565b80601f01602080910402602001604051908101604052809291908181526020018280546104b690611f34565b80156105035780601f106104d857610100808354040283529160200191610503565b820191906000526020600020905b8154815290600101906020018083116104e657829003601f168201915b5050505050815260200160018201805461051c90611f34565b80601f016020809104026020016040519081016040528092919081815260200182805461054890611f34565b80156105955780601f1061056a57610100808354040283529160200191610595565b820191906000526020600020905b81548152906001019060200180831161057857829003601f168201915b50505050508152602001600282015481526020016003820160009054906101000a900473ffffffffffffffffffffffffffffffffffffffff1673ffffffffffffffffffffffffffffffffffffffff1673ffffffffffffffffffffffffffffffffffffffff16815260200160048201548152505092505050919050565b60608060008060009054906101000a900473ffffffffffffffffffffffffffffffffffffffff1673ffffffffffffffffffffffffffffffffffffffff16630f53a470336040518263ffffffff1660e01b81526004016106709190611c5b565b600060405180830381865afa15801561068d573d6000803e3d6000fd5b505050506040513d6000823e3d601f19601f820116820180604052508101906106b69190611d78565b9050600081600001515111610700576040517f08c379a00000000000000000000000000000000000000000000000000000000081526004016106f790611e0d565b60405180910390fd5b60008060009054906101000a900473ffffffffffffffffffffffffffffffffffffffff1673ffffffffffffffffffffffffffffffffffffffff16630f53a470336040518263ffffffff1660e01b815260040161075c9190611c5b565b600060405180830381865afa158015610779573d6000803e3d6000fd5b505050506040513d6000823e3d601f19601f820116820180604052508101906107a29190611d78565b90506040518060400160405280600781526020017f73747564656e7400000000000000000000000000000000000000000000000000815250805190602001208160200151805190602001201461082d576040517f08c379a000000000000000000000000000000000000000000000000000000000815260040161082490611e79565b60405180910390fd5b6000600460008773ffffffffffffffffffffffffffffffffffffffff1673ffffffffffffffffffffffffffffffffffffffff168152602001908152602001600020805480602002602001604051908101604052809291908181526020016000905b82821015610a4e57838290600052602060002090600502016040518060a00160405290816000820180546108c190611f34565b80601f01602080910402602001604051908101604052809291908181526020018280546108ed90611f34565b801561093a5780601f1061090f5761010080835404028352916020019161093a565b820191906000526020600020905b81548152906001019060200180831161091d57829003601f168201915b5050505050815260200160018201805461095390611f34565b80601f016020809104026020016040519081016040528092919081815260200182805461097f90611f34565b80156109cc5780601f106109a1576101008083540402835291602001916109cc565b820191906000526020600020905b8154815290600101906020018083116109af57829003601f168201915b50505050508152602001600282015481526020016003820160009054906101000a900473ffffffffffffffffffffffffffffffffffffffff1673ffffffffffffffffffffffffffffffffffffffff1673ffffffffffffffffffffffffffffffffffffffff1681526020016004820154815250508152602001906001019061088e565b5050505090506000815167ffffffffffffffff811115610a7157610a706118bb565b5b604051908082528060200260200182016040528015610a9f5781602001602082028036833780820191505090505b50905060005b8251811015610ba557828181518110610ac157610ac0611f65565b5b602002602001015160000151838281518110610ae057610adf611f65565b5b602002602001015160200151848381518110610aff57610afe611f65565b5b602002602001015160400151858481518110610b1e57610b1d611f65565b5b602002602001015160600151868581518110610b3d57610b3c611f65565b5b602002602001015160800151604051602001610b5d959493929190612039565b60405160208183030381529060405280519060200120828281518110610b8657610b85611f65565b5b6020026020010181815250508080610b9d906120bf565b915050610aa5565b5081819550955050505050915091565b60008060008054906101000a900473ffffffffffffffffffffffffffffffffffffffff1673ffffffffffffffffffffffffffffffffffffffff16630f53a470336040518263ffffffff1660e01b8152600401610c119190611c5b565b600060405180830381865afa158015610c2e573d6000803e3d6000fd5b505050506040513d6000823e3d601f19601f82011682018060405250810190610c579190611d78565b9050600081600001515111610ca1576040517f08c379a0000000000000000000000000000000000000000000000000000000008152600401610c9890611e0d565b60405180910390fd5b60008060009054906101000a900473ffffffffffffffffffffffffffffffffffffffff1673ffffffffffffffffffffffffffffffffffffffff16630f53a470336040518263ffffffff1660e01b8152600401610cfd9190611c5b565b600060405180830381865afa158015610d1a573d6000803e3d6000fd5b505050506040513d6000823e3d601f19601f82011682018060405250810190610d439190611d78565b90506040518060400160405280600981526020017f696e7374697475746500000000000000000000000000000000000000000000008152508051906020012081602001518051906020012014610dce576040517f08c379a0000000000000000000000000000000000000000000000000000000008152600401610dc590611e79565b60405180910390fd5b60006040518060a001604052808a81526020018981526020018881526020018773ffffffffffffffffffffffffffffffffffffffff168152602001428152509050600460008773ffffffffffffffffffffffffffffffffffffffff1673ffffffffffffffffffffffffffffffffffffffff1681526020019081526020016000208190806001815401808255809150506001900390600052602060002090600502016000909190919091506000820151816000019081610e8d91906122b3565b506020820151816001019081610ea391906122b3565b506040820151816002015560608201518160030160006101000a81548173ffffffffffffffffffffffffffffffffffffffff021916908373ffffffffffffffffffffffffffffffffffffffff16021790555060808201518160040155505060008989898989604051602001610f1c959493929190612039565b60405160208183030381529060405280519060200120905060018190806001815401808255809150506001900390600052602060002001600090919091909150556040518060a001604052808b81526020018a81526020018981526020018873ffffffffffffffffffffffffffffffffffffffff16815260200187815250600360008381526020019081526020016000206000820151816000019081610fc291906122b3565b506020820151816001019081610fd891906122b3565b506040820151816002015560608201518160030160006101000a81548173ffffffffffffffffffffffffffffffffffffffff021916908373ffffffffffffffffffffffffffffffffffffffff1602179055506080820151816004015590505060016002600083815260200190815260200160002060006101000a81548160ff0219169083151502179055507f125b3a66cc5add32a89d24d5b1426cbc4fb8632b2ad8488b9e34a557e777c0c88a8a8a8a4260405161109a959493929190611b84565b60405180910390a18094505050505095945050505050565b600181815481106110c257600080fd5b906000526020600020016000915090505481565b60036020528060005260406000206000915090508060000180546110f990611f34565b80601f016020809104026020016040519081016040528092919081815260200182805461112590611f34565b80156111725780601f1061114757610100808354040283529160200191611172565b820191906000526020600020905b81548152906001019060200180831161115557829003601f168201915b50505050509080600101805461118790611f34565b80601f01602080910402602001604051908101604052809291908181526020018280546111b390611f34565b80156112005780601f106111d557610100808354040283529160200191611200565b820191906000526020600020905b8154815290600101906020018083116111e357829003601f168201915b5050505050908060020154908060030160009054906101000a900473ffffffffffffffffffffffffffffffffffffffff16908060040154905085565b60026020528060005260406000206000915054906101000a900460ff1681565b6004602052816000526040600020818154811061127857600080fd5b90600052602060002090600502016000915091505080600001805461129c90611f34565b80601f01602080910402602001604051908101604052809291908181526020018280546112c890611f34565b80156113155780601f106112ea57610100808354040283529160200191611315565b820191906000526020600020905b8154815290600101906020018083116112f857829003601f168201915b50505050509080600101805461132a90611f34565b80601f016020809104026020016040519081016040528092919081815260200182805461135690611f34565b80156113a35780601f10611378576101008083540402835291602001916113a3565b820191906000526020600020905b81548152906001019060200180831161138657829003601f168201915b5050505050908060020154908060030160009054906101000a900473ffffffffffffffffffffffffffffffffffffffff16908060040154905085565b6040518060a00160405280606081526020016060815260200160008152602001600073ffffffffffffffffffffffffffffffffffffffff168152602001600081525090565b6000604051905090565b600080fd5b600080fd5b6000819050919050565b61144b81611438565b811461145657600080fd5b50565b60008135905061146881611442565b92915050565b6000602082840312156114845761148361142e565b5b600061149284828501611459565b91505092915050565b600081519050919050565b600082825260208201905092915050565b60005b838110156114d55780820151818401526020810190506114ba565b60008484015250505050565b6000601f19601f8301169050919050565b60006114fd8261149b565b61150781856114a6565b93506115178185602086016114b7565b611520816114e1565b840191505092915050565b6000819050919050565b61153e8161152b565b82525050565b600073ffffffffffffffffffffffffffffffffffffffff82169050919050565b600061156f82611544565b9050919050565b61157f81611564565b82525050565b600060a08301600083015184820360008601526115a282826114f2565b915050602083015184820360208601526115bc82826114f2565b91505060408301516115d16040860182611535565b5060608301516115e46060860182611576565b5060808301516115f76080860182611535565b508091505092915050565b6000602082019050818103600083015261161c8184611585565b905092915050565b61162d81611564565b811461163857600080fd5b50565b60008135905061164a81611624565b92915050565b6000602082840312156116665761166561142e565b5b60006116748482850161163b565b91505092915050565b600081519050919050565b600082825260208201905092915050565b6000819050602082019050919050565b600060a08301600083015184820360008601526116c682826114f2565b915050602083015184820360208601526116e082826114f2565b91505060408301516116f56040860182611535565b5060608301516117086060860182611576565b50608083015161171b6080860182611535565b508091505092915050565b600061173283836116a9565b905092915050565b6000602082019050919050565b60006117528261167d565b61175c8185611688565b93508360208202850161176e85611699565b8060005b858110156117aa578484038952815161178b8582611726565b94506117968361173a565b925060208a01995050600181019050611772565b50829750879550505050505092915050565b600081519050919050565b600082825260208201905092915050565b6000819050602082019050919050565b6117f181611438565b82525050565b600061180383836117e8565b60208301905092915050565b6000602082019050919050565b6000611827826117bc565b61183181856117c7565b935061183c836117d8565b8060005b8381101561186d57815161185488826117f7565b975061185f8361180f565b925050600181019050611840565b5085935050505092915050565b600060408201905081810360008301526118948185611747565b905081810360208301526118a8818461181c565b90509392505050565b600080fd5b600080fd5b7f4e487b7100000000000000000000000000000000000000000000000000000000600052604160045260246000fd5b6118f3826114e1565b810181811067ffffffffffffffff82111715611912576119116118bb565b5b80604052505050565b6000611925611424565b905061193182826118ea565b919050565b600067ffffffffffffffff821115611951576119506118bb565b5b61195a826114e1565b9050602081019050919050565b82818337600083830152505050565b600061198961198484611936565b61191b565b9050828152602081018484840111156119a5576119a46118b6565b5b6119b0848285611967565b509392505050565b600082601f8301126119cd576119cc6118b1565b5b81356119dd848260208601611976565b91505092915050565b6119ef8161152b565b81146119fa57600080fd5b50565b600081359050611a0c816119e6565b92915050565b600080600080600060a08688031215611a2e57611a2d61142e565b5b600086013567ffffffffffffffff811115611a4c57611a4b611433565b5b611a58888289016119b8565b955050602086013567ffffffffffffffff811115611a7957611a78611433565b5b611a85888289016119b8565b9450506040611a96888289016119fd565b9350506060611aa78882890161163b565b9250506080611ab8888289016119fd565b9150509295509295909350565b611ace81611438565b82525050565b6000602082019050611ae96000830184611ac5565b92915050565b600060208284031215611b0557611b0461142e565b5b6000611b13848285016119fd565b91505092915050565b600082825260208201905092915050565b6000611b388261149b565b611b428185611b1c565b9350611b528185602086016114b7565b611b5b816114e1565b840191505092915050565b611b6f8161152b565b82525050565b611b7e81611564565b82525050565b600060a0820190508181036000830152611b9e8188611b2d565b90508181036020830152611bb28187611b2d565b9050611bc16040830186611b66565b611bce6060830185611b75565b611bdb6080830184611b66565b9695505050505050565b60008115159050919050565b611bfa81611be5565b82525050565b6000602082019050611c156000830184611bf1565b92915050565b60008060408385031215611c3257611c3161142e565b5b6000611c408582860161163b565b9250506020611c51858286016119fd565b9150509250929050565b6000602082019050611c706000830184611b75565b92915050565b600080fd5b600080fd5b6000611c93611c8e84611936565b61191b565b905082815260208101848484011115611caf57611cae6118b6565b5b611cba8482856114b7565b509392505050565b600082601f830112611cd757611cd66118b1565b5b8151611ce7848260208601611c80565b91505092915050565b600060408284031215611d0657611d05611c76565b5b611d10604061191b565b9050600082015167ffffffffffffffff811115611d3057611d2f611c7b565b5b611d3c84828501611cc2565b600083015250602082015167ffffffffffffffff811115611d6057611d5f611c7b565b5b611d6c84828501611cc2565b60208301525092915050565b600060208284031215611d8e57611d8d61142e565b5b600082015167ffffffffffffffff811115611dac57611dab611433565b5b611db884828501611cf0565b91505092915050565b7f55534552204e4f54205245474953544552454400000000000000000000000000600082015250565b6000611df7601383611b1c565b9150611e0282611dc1565b602082019050919050565b60006020820190508181036000830152611e2681611dea565b9050919050565b7f43484f4f534520594f555220524f4c4520464952535400000000000000000000600082015250565b6000611e63601683611b1c565b9150611e6e82611e2d565b602082019050919050565b60006020820190508181036000830152611e9281611e56565b9050919050565b7f43657274696669636174652048617368206e6f7420466f756e642e0000000000600082015250565b6000611ecf601b83611b1c565b9150611eda82611e99565b602082019050919050565b60006020820190508181036000830152611efe81611ec2565b9050919050565b7f4e487b7100000000000000000000000000000000000000000000000000000000600052602260045260246000fd5b60006002820490506001821680611f4c57607f821691505b602082108103611f5f57611f5e611f05565b5b50919050565b7f4e487b7100000000000000000000000000000000000000000000000000000000600052603260045260246000fd5b600081905092915050565b6000611faa8261149b565b611fb48185611f94565b9350611fc48185602086016114b7565b80840191505092915050565b6000819050919050565b611feb611fe68261152b565b611fd0565b82525050565b60008160601b9050919050565b600061200982611ff1565b9050919050565b600061201b82611ffe565b9050919050565b61203361202e82611564565b612010565b82525050565b60006120458288611f9f565b91506120518287611f9f565b915061205d8286611fda565b60208201915061206d8285612022565b60148201915061207d8284611fda565b6020820191508190509695505050505050565b7f4e487b7100000000000000000000000000000000000000000000000000000000600052601160045260246000fd5b60006120ca8261152b565b91507fffffffffffffffffffffffffffffffffffffffffffffffffffffffffffffffff82036120fc576120fb612090565b5b600182019050919050565b60008190508160005260206000209050919050565b60006020601f8301049050919050565b600082821b905092915050565b6000600883026121697fffffffffffffffffffffffffffffffffffffffffffffffffffffffffffffffff8261212c565b612173868361212c565b95508019841693508086168417925050509392505050565b6000819050919050565b60006121b06121ab6121a68461152b565b61218b565b61152b565b9050919050565b6000819050919050565b6121ca83612195565b6121de6121d6826121b7565b848454612139565b825550505050565b600090565b6121f36121e6565b6121fe8184846121c1565b505050565b5b81811015612222576122176000826121eb565b600181019050612204565b5050565b601f8211156122675761223881612107565b6122418461211c565b81016020851015612250578190505b61226461225c8561211c565b830182612203565b50505b505050565b600082821c905092915050565b600061228a6000198460080261226c565b1980831691505092915050565b60006122a38383612279565b9150826002028217905092915050565b6122bc8261149b565b67ffffffffffffffff8111156122d5576122d46118bb565b5b6122df8254611f34565b6122ea828285612226565b600060209050601f83116001811461231d576000841561230b578287015190505b6123158582612297565b86555061237d565b601f19841661232b86612107565b60005b828110156123535784890151825560018201915060208501945060208101905061232e565b86831015612370578489015161236c601f891682612279565b8355505b6001600288020188555050505b50505050505056fea2646970667358221220c09c4c8b2c2cccb9f7830e9f6c1cef68aafe55e0c7fd7212bbf8b153c9516e8c64736f6c63430008140033",
  "linkReferences": {},
  "deployedLinkReferences": {}
}