{
  "_format": "hh-sol-artifact-1",
  "contractName": "User",
  "sourceName": "contracts/User.sol",
  "abi": [
    {
      "inputs": [
        {
          "internalType": "address",
          "name": "_user",
          "type": "address"
        }
      ],
      "name": "getProfile",
      "outputs": [
        {
          "components": [
            {
              "internalType": "string",
              "name": "userName",
              "type": "string"
            },
            {
              "internalType": "string",
              "name": "userRole",
              "type": "string"
            }
          ],
          "internalType": "struct User.UserProfile",
          "name": "",
          "type": "tuple"
        }
      ],
      "stateMutability": "view",
      "type": "function"
    },
    {
      "inputs": [
        {
          "internalType": "address",
          "name": "",
          "type": "address"
        }
      ],
      "name": "profiles",
      "outputs": [
        {
          "internalType": "string",
          "name": "userName",
          "type": "string"
        },
        {
          "internalType": "string",
          "name": "userRole",
          "type": "string"
        }
      ],
      "stateMutability": "view",
      "type": "function"
    },
    {
      "inputs": [
        {
          "internalType": "string",
          "name": "_userName",
          "type": "string"
        },
        {
          "internalType": "string",
          "name": "_userRole",
          "type": "string"
        }
      ],
      "name": "setProfile",
      "outputs": [],
      "stateMutability": "nonpayable",
      "type": "function"
    }
  ],
  "bytecode": "0x608060405234801561001057600080fd5b50610c54806100206000396000f3fe608060405234801561001057600080fd5b50600436106100415760003560e01c80630f53a47014610046578063719e37ae14610076578063bbe1562714610092575b600080fd5b610060600480360381019061005b919061050d565b6100c3565b60405161006d919061060e565b60405180910390f35b610090600480360381019061008b9190610765565b61023f565b005b6100ac60048036038101906100a7919061050d565b61034d565b6040516100ba929190610827565b60405180910390f35b6100cb610481565b6000808373ffffffffffffffffffffffffffffffffffffffff1673ffffffffffffffffffffffffffffffffffffffff1681526020019081526020016000206040518060400160405290816000820180546101249061088d565b80601f01602080910402602001604051908101604052809291908181526020018280546101509061088d565b801561019d5780601f106101725761010080835404028352916020019161019d565b820191906000526020600020905b81548152906001019060200180831161018057829003601f168201915b505050505081526020016001820180546101b69061088d565b80601f01602080910402602001604051908101604052809291908181526020018280546101e29061088d565b801561022f5780601f106102045761010080835404028352916020019161022f565b820191906000526020600020905b81548152906001019060200180831161021257829003601f168201915b5050505050815250509050919050565b6000825111610283576040517f08c379a000000000000000000000000000000000000000000000000000000000815260040161027a9061090a565b60405180910390fd5b60008151116102c7576040517f08c379a00000000000000000000000000000000000000000000000000000000081526004016102be90610976565b60405180910390fd5b6040518060400160405280838152602001828152506000803373ffffffffffffffffffffffffffffffffffffffff1673ffffffffffffffffffffffffffffffffffffffff168152602001908152602001600020600082015181600001908161032f9190610b4c565b5060208201518160010190816103459190610b4c565b509050505050565b60006020528060005260406000206000915090508060000180546103709061088d565b80601f016020809104026020016040519081016040528092919081815260200182805461039c9061088d565b80156103e95780601f106103be576101008083540402835291602001916103e9565b820191906000526020600020905b8154815290600101906020018083116103cc57829003601f168201915b5050505050908060010180546103fe9061088d565b80601f016020809104026020016040519081016040528092919081815260200182805461042a9061088d565b80156104775780601f1061044c57610100808354040283529160200191610477565b820191906000526020600020905b81548152906001019060200180831161045a57829003601f168201915b5050505050905082565b604051806040016040528060608152602001606081525090565b6000604051905090565b600080fd5b600080fd5b600073ffffffffffffffffffffffffffffffffffffffff82169050919050565b60006104da826104af565b9050919050565b6104ea816104cf565b81146104f557600080fd5b50565b600081359050610507816104e1565b92915050565b600060208284031215610523576105226104a5565b5b6000610531848285016104f8565b91505092915050565b600081519050919050565b600082825260208201905092915050565b60005b83811015610574578082015181840152602081019050610559565b60008484015250505050565b6000601f19601f8301169050919050565b600061059c8261053a565b6105a68185610545565b93506105b6818560208601610556565b6105bf81610580565b840191505092915050565b600060408301600083015184820360008601526105e78282610591565b915050602083015184820360208601526106018282610591565b9150508091505092915050565b6000602082019050818103600083015261062881846105ca565b905092915050565b600080fd5b600080fd5b7f4e487b7100000000000000000000000000000000000000000000000000000000600052604160045260246000fd5b61067282610580565b810181811067ffffffffffffffff821117156106915761069061063a565b5b80604052505050565b60006106a461049b565b90506106b08282610669565b919050565b600067ffffffffffffffff8211156106d0576106cf61063a565b5b6106d982610580565b9050602081019050919050565b82818337600083830152505050565b6000610708610703846106b5565b61069a565b90508281526020810184848401111561072457610723610635565b5b61072f8482856106e6565b509392505050565b600082601f83011261074c5761074b610630565b5b813561075c8482602086016106f5565b91505092915050565b6000806040838503121561077c5761077b6104a5565b5b600083013567ffffffffffffffff81111561079a576107996104aa565b5b6107a685828601610737565b925050602083013567ffffffffffffffff8111156107c7576107c66104aa565b5b6107d385828601610737565b9150509250929050565b600082825260208201905092915050565b60006107f98261053a565b61080381856107dd565b9350610813818560208601610556565b61081c81610580565b840191505092915050565b6000604082019050818103600083015261084181856107ee565b9050818103602083015261085581846107ee565b90509392505050565b7f4e487b7100000000000000000000000000000000000000000000000000000000600052602260045260246000fd5b600060028204905060018216806108a557607f821691505b6020821081036108b8576108b761085e565b5b50919050565b7f55736572206e616d652063616e6e6f7420626520656d70747900000000000000600082015250565b60006108f46019836107dd565b91506108ff826108be565b602082019050919050565b60006020820190508181036000830152610923816108e7565b9050919050565b7f5573657220726f6c652063616e6e6f7420626520656d70747900000000000000600082015250565b60006109606019836107dd565b915061096b8261092a565b602082019050919050565b6000602082019050818103600083015261098f81610953565b9050919050565b60008190508160005260206000209050919050565b60006020601f8301049050919050565b600082821b905092915050565b6000600883026109f87fffffffffffffffffffffffffffffffffffffffffffffffffffffffffffffffff826109bb565b610a0286836109bb565b95508019841693508086168417925050509392505050565b6000819050919050565b6000819050919050565b6000610a49610a44610a3f84610a1a565b610a24565b610a1a565b9050919050565b6000819050919050565b610a6383610a2e565b610a77610a6f82610a50565b8484546109c8565b825550505050565b600090565b610a8c610a7f565b610a97818484610a5a565b505050565b5b81811015610abb57610ab0600082610a84565b600181019050610a9d565b5050565b601f821115610b0057610ad181610996565b610ada846109ab565b81016020851015610ae9578190505b610afd610af5856109ab565b830182610a9c565b50505b505050565b600082821c905092915050565b6000610b2360001984600802610b05565b1980831691505092915050565b6000610b3c8383610b12565b9150826002028217905092915050565b610b558261053a565b67ffffffffffffffff811115610b6e57610b6d61063a565b5b610b78825461088d565b610b83828285610abf565b600060209050601f831160018114610bb65760008415610ba4578287015190505b610bae8582610b30565b865550610c16565b601f198416610bc486610996565b60005b82811015610bec57848901518255600182019150602085019450602081019050610bc7565b86831015610c095784890151610c05601f891682610b12565b8355505b6001600288020188555050505b50505050505056fea264697066735822122051e717e6d5d0438e450f76b33c236e2bdc6252304791e37f2bdd772b61d208f764736f6c63430008140033",
  "linkReferences": {},
  "deployedLinkReferences": {}
}