{
  "_format": "hh-sol-artifact-1",
  "contractName": "User",
  "sourceName": "contracts/User.sol",
  "abi": [
    {
      "inputs": [
        {
          "internalType": "address",
          "name": "",
          "type": "address"
        }
      ],
      "name": "profiles",
      "outputs": [
        {
          "internalType": "string",
          "name": "userName",
          "type": "string"
        },
        {
          "internalType": "string",
          "name": "userRole",
          "type": "string"
        }
      ],
      "stateMutability": "view",
      "type": "function"
    },
    {
      "inputs": [
        {
          "internalType": "string",
          "name": "_userName",
          "type": "string"
        },
        {
          "internalType": "string",
          "name": "_userRole",
          "type": "string"
        }
      ],
      "name": "setProfile",
      "outputs": [],
      "stateMutability": "nonpayable",
      "type": "function"
    }
  ],
  "bytecode": "0x608060405234801561001057600080fd5b506109d3806100206000396000f3fe608060405234801561001057600080fd5b50600436106100365760003560e01c8063719e37ae1461003b578063bbe1562714610057575b600080fd5b61005560048036038101906100509190610424565b610088565b005b610071600480360381019061006c91906104fa565b610196565b60405161007f9291906105a6565b60405180910390f35b60008251116100cc576040517f08c379a00000000000000000000000000000000000000000000000000000000081526004016100c390610629565b60405180910390fd5b6000815111610110576040517f08c379a000000000000000000000000000000000000000000000000000000000815260040161010790610695565b60405180910390fd5b6040518060400160405280838152602001828152506000803373ffffffffffffffffffffffffffffffffffffffff1673ffffffffffffffffffffffffffffffffffffffff168152602001908152602001600020600082015181600001908161017891906108cb565b50602082015181600101908161018e91906108cb565b509050505050565b60006020528060005260406000206000915090508060000180546101b9906106e4565b80601f01602080910402602001604051908101604052809291908181526020018280546101e5906106e4565b80156102325780601f1061020757610100808354040283529160200191610232565b820191906000526020600020905b81548152906001019060200180831161021557829003601f168201915b505050505090806001018054610247906106e4565b80601f0160208091040260200160405190810160405280929190818152602001828054610273906106e4565b80156102c05780601f10610295576101008083540402835291602001916102c0565b820191906000526020600020905b8154815290600101906020018083116102a357829003601f168201915b5050505050905082565b6000604051905090565b600080fd5b600080fd5b600080fd5b600080fd5b6000601f19601f8301169050919050565b7f4e487b7100000000000000000000000000000000000000000000000000000000600052604160045260246000fd5b610331826102e8565b810181811067ffffffffffffffff821117156103505761034f6102f9565b5b80604052505050565b60006103636102ca565b905061036f8282610328565b919050565b600067ffffffffffffffff82111561038f5761038e6102f9565b5b610398826102e8565b9050602081019050919050565b82818337600083830152505050565b60006103c76103c284610374565b610359565b9050828152602081018484840111156103e3576103e26102e3565b5b6103ee8482856103a5565b509392505050565b600082601f83011261040b5761040a6102de565b5b813561041b8482602086016103b4565b91505092915050565b6000806040838503121561043b5761043a6102d4565b5b600083013567ffffffffffffffff811115610459576104586102d9565b5b610465858286016103f6565b925050602083013567ffffffffffffffff811115610486576104856102d9565b5b610492858286016103f6565b9150509250929050565b600073ffffffffffffffffffffffffffffffffffffffff82169050919050565b60006104c78261049c565b9050919050565b6104d7816104bc565b81146104e257600080fd5b50565b6000813590506104f4816104ce565b92915050565b6000602082840312156105105761050f6102d4565b5b600061051e848285016104e5565b91505092915050565b600081519050919050565b600082825260208201905092915050565b60005b83811015610561578082015181840152602081019050610546565b60008484015250505050565b600061057882610527565b6105828185610532565b9350610592818560208601610543565b61059b816102e8565b840191505092915050565b600060408201905081810360008301526105c0818561056d565b905081810360208301526105d4818461056d565b90509392505050565b7f55736572206e616d652063616e6e6f7420626520656d70747900000000000000600082015250565b6000610613601983610532565b915061061e826105dd565b602082019050919050565b6000602082019050818103600083015261064281610606565b9050919050565b7f5573657220726f6c652063616e6e6f7420626520656d70747900000000000000600082015250565b600061067f601983610532565b915061068a82610649565b602082019050919050565b600060208201905081810360008301526106ae81610672565b9050919050565b7f4e487b7100000000000000000000000000000000000000000000000000000000600052602260045260246000fd5b600060028204905060018216806106fc57607f821691505b60208210810361070f5761070e6106b5565b5b50919050565b60008190508160005260206000209050919050565b60006020601f8301049050919050565b600082821b905092915050565b6000600883026107777fffffffffffffffffffffffffffffffffffffffffffffffffffffffffffffffff8261073a565b610781868361073a565b95508019841693508086168417925050509392505050565b6000819050919050565b6000819050919050565b60006107c86107c36107be84610799565b6107a3565b610799565b9050919050565b6000819050919050565b6107e2836107ad565b6107f66107ee826107cf565b848454610747565b825550505050565b600090565b61080b6107fe565b6108168184846107d9565b505050565b5b8181101561083a5761082f600082610803565b60018101905061081c565b5050565b601f82111561087f5761085081610715565b6108598461072a565b81016020851015610868578190505b61087c6108748561072a565b83018261081b565b50505b505050565b600082821c905092915050565b60006108a260001984600802610884565b1980831691505092915050565b60006108bb8383610891565b9150826002028217905092915050565b6108d482610527565b67ffffffffffffffff8111156108ed576108ec6102f9565b5b6108f782546106e4565b61090282828561083e565b600060209050601f8311600181146109355760008415610923578287015190505b61092d85826108af565b865550610995565b601f19841661094386610715565b60005b8281101561096b57848901518255600182019150602085019450602081019050610946565b868310156109885784890151610984601f891682610891565b8355505b6001600288020188555050505b50505050505056fea2646970667358221220fa3ba08f93242d467c3e6f38fc21baf052fe828d4066ad9afc89f36179d3c95a64736f6c63430008140033",
  "linkReferences": {},
  "deployedLinkReferences": {}
}